:100000000C9476000C947C010C948A010C9488006A
:100010000C9488000C9488000C9488000C94880040
:100020000C9488000C9488000C9488000C94880030
:100030000C9488000C9488000C9488000C94880020
:100040000C9488000C9488000C9488000C94880010
:100050000C9488000C9488000C9488000C94880000
:100060000C9488000C94880042656D2020202000AC
:100070000056696E646F202121212020202020203D
:1000800020202020202000002020202050726F6E91
:10009000746F212020202020000043726F6E6F6D4E
:1000A000657472616E646F2E2E2E20202020200039
:1000B0000054656D706F2064652051756564613A08
:1000C0002020202020000020202020204552524FB8
:1000D000212020202020200000202020202020205F
:1000E00020202020202020202000000011241FBEDE
:1000F000CFEFD8E0DEBFCDBF11E0A0E0B1E001C09E
:100100001D92AB30B107E1F70E948A000C94B00257
:100110000C9400002F923F924F925F926F927F92C9
:100120008F929F92AF92BF92CF92DF92EF92FF9207
:100130000F931F93DF93CF9300D000D00F92CDB7D2
:10014000DEB780EF8AB903E00BB98FE384B915B845
:100150000E94FC0181E060E00E94C5018AE080937A
:1001600069000DBB1092800085E0809381001092A1
:100170006F000F2EF8E8CF2EF0E0DF2EF02D0F2EBF
:10018000F9EDAF2EF0E0BF2EF02DEE246894E1F8EB
:100190000F2EF8E68F2EF0E09F2EF02D0F2EF1E7B8
:1001A0006F2EF0E07F2EF02DFF24F3940F2EFAE94E
:1001B0004F2EF0E05F2EF02D0F2EF1EB2F2EF0E002
:1001C0003F2EF02D8E010F5F1F4F80910A0181306D
:1001D00031F1813030F0823009F440C08330B9F71A
:1001E0004DC084E860E00E94C501C4010E94740211
:1001F00085EC60E00E94C501C3010E9474028FEF8C
:1002000097EAA1E681509040A040E1F700C00000CD
:10021000F0920A018F2D60E00E94C501D6CFF894BC
:100220001092060110920701109208011092090124
:1002300080E860E00E94C501C6010E94740280EC63
:1002400060E00E94C501C5010E9474025C9A489951
:10025000BCCF489BFECFE0920A01B7CF80E860E0B8
:100260000E94C501C2010E94740278945C98499969
:10027000ACCF489BFECFF0920A01A7CF80E860E0A8
:100280000E94C501F894C1010E947402A6E0B1E089
:100290008D919C91B8010E94890286EC60E00E94D9
:1002A000C5018D816F2D0E94C5018C816F2D0E942B
:1002B000C5018B816F2D0E94C5018A816F2D0E941F
:1002C000C5018EE26F2D0E94C50189816F2D0E94AC
:1002D000C50180E26F2D0E94C5018DE66F2D0E9441
:1002E000C50183E76F2D0E94C50149996ECF489BD8
:1002F000FECFF0920A0169CF1F920F920FB60F92B4
:10030000112410928500109284000F900FBE0F9060
:100310001F9018951F920F920FB60F9211248F9372
:100320009F93AF93BF93EF93FF93E4E8F0E0808156
:10033000918190930501809304018081918180E0F7
:1003400090E0A0E5B2E48093000190930101A093B6
:100350000201B093030180E49FEEA7E0B0E0809338
:10036000060190930701A0930801B093090183E06F
:1003700080930A01FF91EF91BF91AF919F918F916F
:100380000F900FBE0F901F901895662311F42D98B3
:1003900001C02D9A95B1282F22952F70907F922B16
:1003A00095B995E09A95F1F700002C9A95E09A9509
:1003B000F1F700002C9890EF9A95F1F795B1282F5E
:1003C0002F70907F922B95B995E09A95F1F70000E8
:1003D0002C9A95E09A95F1F700002C9890EF9A9559
:1003E000F1F7662341F4843030F48FE39FE1019705
:1003F000F1F700C0000008952D982C988FEF99EF29
:10040000A0E081509040A040E1F700C0000085B11D
:10041000807F836085B995E09A95F1F700002C9A6A
:10042000A5E0AA95F1F700002C98B0EFBA95F1F786
:100430008FE19EE40197F1F700C0000095E09A95E6
:10044000F1F700002C9AA5E0AA95F1F700002C988E
:10045000B0EFBA95F1F78FE193E00197F1F700C0A3
:10046000000095E09A95F1F700002C9AA5E0AA9576
:10047000F1F700002C98B0EFBA95F1F785B1807FC5
:10048000826085B985E08A95F1F700002C9A95E0A5
:100490009A95F1F700002C98A0EFAA95F1F788E261
:1004A00060E00E94C50188E060E00E94C50181E033
:1004B00060E00E94C5018CE060E00E94C50180E818
:1004C00060E00E94C5010895CF93DF93EC0188811D
:1004D000882339F0219661E00E94C5018991882323
:1004E000D1F7DF91CF910895CF93DF93EC01FE0117
:1004F0002491222359F0FC01849161E00E94C501FE
:100500002196CE01FE0124912223A9F7DF91CF91FC
:100510000895FB0120E32083218322832383248306
:100520002AE030E0B9010E949C02805D8193862F11
:10053000972F0097B9F70895AA1BBB1B51E107C07D
:10054000AA1FBB1FA617B70710F0A61BB70B881F63
:10055000991F5A95A9F780959095BC01CD010895F2
:04056000F894FFCF3D
:00000001FF
